S015000053656E696F722044657369676E2E7372656325
S11300000C945A000C9464000C9464000C946400E6
S11300100C9464000C9464000C9464000C946400CC
S11300200C9464000C9464000C9464000C946400BC
S11300300C9464000C9464000C9464000C946400AC
S11300400C9464000C9464000C9464000C9464009C
S11300500C9464000C9464000C9464000C9464008C
S11300600C9464000C9464000C9464000C9464007C
S11300700C9464000C9464000C9464000C9464006C
S11300800C9464000C9464000C9464000C9464005C
S11300900C9464000C9464000C9464000C9464004C
S11300A00C9464000C9464000C9464000C9464003C
S11300B00C94640011241FBECFEFD8E0DEBFCDBF87
S11300C00E9466000C9407010C94000084B18963BB
S11300D084B984B1866084B981EF8093800082E022
S11300E080938100109282001092890010928800FF
S11300F010928B0010928A00A8E8B0E0EAE8F0E0E1
S113010080E290E029E130E0289A2B982C9A2D98EF
S113011011969C938E9391838083CFE4D3EC2197A3
S1130120F1F700C0000028982B9A2C9A2D9811966C
S11301309C938E9391838083CFE4D3EC2197F1F742
S113014000C0000028982B9A2C982D9A11969C9305
S11301508E9391838083CFE4D3EC2197F1F700C091
S11301600000289A2B982C982D9A11969C938E9384
S113017091838083CFE4D3EC2197F1F700C0000092
S11301802150310909F0C0CF29E130E028982B9A99
S11301902C982D9A11969C938E9391838083CFE40F
S11301A0D3EC2197F1F700C0000028982B9A2C9AE1
S11301B02D9811969C938E9391838083CFE4D3ECF6
S11301C02197F1F700C00000289A2B982C9A2D98BB
S11301D011969C938E9391838083CFE4D3EC2197E3
S11301E0F1F700C00000289A2B982C982D9A1196AC
S11301F09C938E9391838083CFE4D3EC2197F1F782
S113020000C000002150310909F0C0CF7BCFF89421
S1050210FFCF1A
S9030000FC
