:100000000C945A000C9464000C9464000C946400EA
:100010000C9464000C9464000C9464000C946400D0
:100020000C9464000C9464000C9464000C946400C0
:100030000C9464000C9464000C9464000C946400B0
:100040000C9464000C9464000C9464000C946400A0
:100050000C9464000C9464000C9464000C94640090
:100060000C9464000C9464000C9464000C94640080
:100070000C9464000C9464000C9464000C94640070
:100080000C9464000C9464000C9464000C94640060
:100090000C9464000C9464000C9464000C94640050
:1000A0000C9464000C9464000C9464000C94640040
:1000B0000C94640011241FBECFEFD8E0DEBFCDBF8B
:1000C0000E9466000C94A9000C94000084B189631E
:1000D00084B984B1866084B981EF8093800082E026
:1000E0008093810010928200109289001092880003
:1000F00010928B0010928A00A8E8B0E020E830E06F
:10010000EAE8F0E08FEF90E0289A2B982C982D9851
:1001100011963C932E93918380834FE956E861E0DA
:10012000415050406040E1F700C0000028982B9AF1
:100130002C982D9811963C932E93918380834FE9B0
:1001400056E861E0415050406040E1F700C00000D7
:06015000DBCFF894FFCFA5
:00000001FF
